:100000002FC053C052C051C050C0A0C24EC0E8C2A1
:100010004CC04BC04AC034C348C047C046C00205AC
:100020000C1122050C050C0000000000010100026B
:10003000050C1122050C050C0010102020010100F8
:100040000000000037000000000038000202020239
:100050000202010204081020010300000400490705
:1000600011241FBECFE5D2E0DEBFCDBF20E0A2E865
:10007000B0E001C01D92A03FB207E1F710E0A0E69A
:10008000B0E0E8E8FFE002C005900D92A238B107A9
:10009000D9F710E0C0E3D0E003C02197FE016CD790
:1000A000CF32D107D1F7DBD46DC7AACF3FB7F894D1
:1000B0008091EC009091ED00A091EE00B091EF00E6
:1000C00022B708B601FE05C02F3F19F00196A11D09
:1000D000B11D3FBFBA2FA92F982F8827BC01CD0192
:1000E000620F711D811D911D43E0660F771F881FF0
:1000F000991F4A95D1F70895813029F41EBC91309B
:1001000021F41BBC08958EBDFACF9BBD08950895C0
:100110002FB7F894FC01458556853AE06095089420
:1001200020F478B3752378BB04C078B3742B78BB04
:100130000000A0D29FD29ED29DD266953A9581F7BB
:100140002FBF81E090E00895DC011F96ED91FC91B6
:1001500020A131A182A193A12817390779F0A2A18A
:10016000B3A1AE0FBF1F8C9122A133A12F5F3F4FD0
:100170002F71332733A322A390E008958FEF9FEFD1
:100180000895DC011F96ED91FC9120A131A182A17F
:1001900093A12817390739F082A193A1E80FF91F1D
:1001A000808190E008958FEF9FEF0895DC011F9606
:1001B000ED91FC9180A191A122A133A1821B930B0F
:1001C0008F7199270895CF92DF92EF92FF920F934C
:1001D0001F93CF93DF936C01EB017B01E40EF51EBF
:1001E00010E000E0CE15DF0561F06991D601ED91D8
:1001F000FC910190F081E02DC6010995080F191FAF
:10020000F1CFC801DF91CF911F910F91FF90EF9037
:10021000DF90CF900895EF92FF920F931F93CF93AB
:10022000DF93A62F472FC72FD0E0E62FF0E0282F2F
:1002300030E0C90164E670E067D68C01A417D8F1FC
:10024000CE0169E070E060D65AE0E52EF12CB701EE
:100250006CD6DB01CF0164E670E056D68A0F9B1F97
:10026000BE0163D6FB01CB0169E070E04DD6B7015A
:100270005CD6CB01800F911FBF0157D681E02115BD
:10028000310539F02F3F310519F010F02FEF30E034
:10029000822F91E06115710539F06F3F710519F0FA
:1002A00010F06FEF70E0962FDF91CF911F910F91BB
:1002B000FF90EF900895CF0169E070E025D64AE005
:1002C000E42EF12CB70131D6DB01CE0164E670E0FB
:1002D0001BD68A0F9B1FBF0128D6FB01CB0169E00B
:1002E00070E012D6B70121D6CB01800F911FBF015C
:1002F0001CD6962F872FB901292F382FBFCF21E089
:1003000030E02817390780F44CEB52E00000000081
:1003100000000000000000000000000041505109F2
:10032000A9F72F5F3F4FEDCF08958F929F92AF9225
:10033000BF92CF92DF92EF92FF920F931F93CF93D2
:10034000DF93C92F4B01082F10E0862F90E0801B10
:10035000910B22E330E0B901FCD56B01D0E0892D8F
:1003600090E08C1B9D0BB901F4D57B0183E3A82E93
:10037000B12C81E01016110634F4802F0F3F1105C7
:1003800011F00CF08FEF91E01C161D0634F49C2F39
:10039000CF3FD10511F00CF09FEFAEDE0C0D1D1D0F
:1003A000CE0DDF1D8AE090E0AADF81E0A81AB10837
:1003B00001F7C401DF91CF911F910F91FF90EF9052
:1003C000DF90CF90BF90AF909F908F9095CE30915F
:1003D0008E0020919900231710F190918F0029171A
:1003E000F0F440919A0050919B0090E0609194004D
:1003F000662391F0E22FE31BFF0B02C0880F991FC9
:10040000EA95E2F7842B952B90939B0080939A00BA
:100410002F5F209399000895440F551FF3CF30911B
:1004200090002317A8F390919100291788F790E086
:1004300040919C0050919D0060919400662379F05A
:10044000E22FE31BFF0B02C0880F991FEA95E2F72A
:10045000842B952B90939D0080939C00D9CF440FC3
:10046000551FF6CF90E0FC01E85AFF4F3491FC0194
:10047000EE5AFF4F2491FC01E45BFF4FE491EE2321
:10048000B1F0332329F0313099F48AB58F778ABDE2
:10049000F0E0EE0FFF1FEA5BFF4FA591B4918FB71D
:1004A000F8949C91E22FE095E923EC938FBF089597
:1004B000323019F48AB58F7DEACF333021F480B71A
:1004C0008F7D80BFE5CF343019F78CB58F7D8CBD23
:1004D000DFCF90E0FC01EE5AFF4F2491845B9F4FE9
:1004E000FC018491882399F090E0880F991FFC010A
:1004F000E05CFF4FA591B491FC01EA5BFF4F859151
:1005000094918FB7F894EC91E22BEC938FBF089500
:100510001F93CF93DF93EC01162FE0D4181731F01F
:10052000612FCE01DF91CF911F91E0C4DF91CF9178
:100530001F910895CF9390E080E0D0D4C82F81E040
:1005400090E0CCD4982F8C2FCF9108951F920F92CA
:100550000FB60F9211242F933F938F939F93AF93D6
:10056000BF938091E8009091E900A091EA00B091DA
:10057000EB003091E70026E0230F2D3768F129E8E2
:10058000230F0396A11DB11D2093E7008093E8007F
:100590009093E900A093EA00B093EB008091EC0007
:1005A0009091ED00A091EE00B091EF000196A11D99
:1005B000B11D8093EC009093ED00A093EE00B093FA
:1005C000EF00BF91AF919F918F913F912F910F902D
:1005D0000FBE0F901F9018950296A11DB11DD4CF8C
:1005E0001F920F920FB60F9211242F933F934F93A8
:1005F0005F937F938F939F93AF93BF93EF93FF93FB
:100600004091D20020E038E035D034D033D032D021
:1006100031D0889476B3742309F0089427953A95DD
:1006200009F0F3CF27D026D0E091D500F091D60085
:1006300080A191A101968F71992742A153A184179E
:10064000950739F0A0A1B1A1AE0FBF1F2C9391A3C4
:1006500080A3449AFF91EF91BF91AF919F918F91A9
:100660007F915F914F913F912F910F900FBE0F900F
:100670001F9018958091D700982F9A95F1F70895BB
:100680001F920F920FB60F9211242F933F934F9307
:100690005F936F937F938F939F93AF93BF93EF93EA
:1006A000FF9386B384709091DE0091110BC09091FE
:1006B000A10091113EC09091A000811116C09F5FD2
:1006C0009093A0008091DE00FF91EF91BF91AF91D8
:1006D0009F918F917F916F915F914F913F912F915A
:1006E0000F900FBE0F901F9018959923A9F081E0ED
:1006F0008093A10080939F0010929E0010929D0015
:1007000010929C0010929B0010929A009FEF909381
:10071000990080939800D6CF809196009091970091
:100720008F3F980779F201969093970080939600F7
:10073000C9CF90919F00992309F4D2C0882309F46E
:10074000A4C0809198008F5F809398008A3E30F01B
:100750001092A1001092A000109298008091A10028
:10076000882309F4AFCF909192008091990098135B
:10077000A9CF809193008111A5CF40916000509145
:10078000610020919C0030919D004217530709F0B1
:1007900060C12091960030919700203B344008F0D2
:1007A00058C1809184008F5F8093840081E08093A2
:1007B000DE00209185002230F9F491111DC0809156
:1007C0009600909197008830974008F045C180913D
:1007D00062009091630090939B0080939A005093E5
:1007E0009D0040939C008091D80081608093D80048
:1007F00010929700109296002093DD0080919A004D
:1008000090919B009093DA008093D900223021F4DC
:10081000909363008093620020919C0030919D0032
:100820003093DC002093DB006091DE00662311F141
:100830004217530799F44091620050916300841766
:10084000950761F440919600509197004A3C5840BA
:1008500028F44091D80041604093D8009093630001
:1008600080936200309361002093600010929700A3
:10087000109296001092A10010929D0010929C0080
:100880001092A000109298001DCF109299008091B4
:10089000A0008E55843568F48091980092ED980FF1
:1008A0006FE270E09C3258F087516EE170E0873162
:1008B00030F01092A1001092850070E060E080910D
:1008C000A100882329F041E150E085E890E0FDD2C5
:1008D00081E08093A0001092980010929F003ECF7C
:1008E00090919E00992309F4A8C0882309F470C050
:1008F000909198009F5F9093980020919200809132
:100900009900281320C0309193003130E1F4692F11
:1009100070E03091950050E040E030FD02C04EE2C2
:1009200050E0461757077CF48091A00090918A0010
:10093000891708F40DCF90918B00981708F408CF11
:10094000109293000BCF9A3E08F408CF2150330B3E
:100950008217130641F490919300911104C08F5FA8
:1009600080939900FBCE90918500923019F09C31D4
:1009700009F0EECE8111ECCE809196009091970017
:100980008830974010F581E08093930082E0809357
:100990008500109292008091620090916300909384
:1009A0009B0080939A0080916000909161009093E9
:1009B0009D0080939C008091D80081608093D80036
:1009C0001092970010929600C9CE1092DE00C6CE0B
:1009D0008091A000909186008917B0F090918700D7
:1009E000981790F09091980020918800921760F0ED
:1009F00020918900291740F081E0E9DC10929E00E7
:100A000081E08093A000AACE90918A00891780F09F
:100A100090918B00981760F08091980090918C00D5
:100A2000891730F090918D00981710F080E0E5CF95
:100A30001092A10010929800E3CF811104C0809120
:100A4000A0008F5FDECF81E080939E0080939800AE
:100A500085CE10928400AACE1092DE00CDCE83E027
:100A60008ABD83BF789489B7826089BF80E48CBDDA
:100A70008FEF8DBD87EC80BF86E886B917DBEB0171
:100A8000AAE0CA2ED12CE12CF12C10DB6C1B7D0BC3
:100A9000683E734008F473C0C114D104E104F1044A
:100AA00009F065C081E015DD84E013DD81E0DADC6A
:100AB00084E0D8DCBA981ABC82E488BD89BD82E0A3
:100AC00083BF8ABD12BE89B7886089BF87B3826140
:100AD00087BB85EE80BF80E68CBD8FEF8DBD2ADDA4
:100AE0009093660080936500909166008091650008
:100AF000891708F4892F80936400609165007091D4
:100B0000660080E090E011DCFF24F394E8E3DE2E41
:100B1000FBE0CF2EEE24EA9405E010E08091DE00A9
:100B20008823E1F32091DD008091DB009091DC00CF
:100B3000223061F1223309F45CC08091DD008093A2
:100B4000E1008091D9009091DA009093E3008093C6
:100B5000E2008091DB009091DC009093E5008093AF
:100B6000E4008091D8008093E60081E04BC061E012
:100B7000C61AD108E108F108C851DC4F86CFC1146C
:100B8000D104E104F10409F080CF8CCF292F332761
:100B9000AC014095509542171306F1F42091D9000D
:100BA0003091DA004091D9005091DA00232F332799
:100BB000409550954217130649F42091D900309181
:100BC000DA0033273093DA002093D90099279093E5
:100BD000DC008093DB00B1CF4091D9005091DA0066
:100BE0004E3E574819F4C092DD00ECCFD092DD00A4
:100BF000A4CF292F33278217130609F444C010927B
:100C0000DD0080E01092DC001092DB001092DA0030
:100C10001092D9001092D8001092DE00882309F4B7
:100C20007DCF8091E100823009F078CF8091E200A1
:100C30009091E300892B09F071CF8091E4009091AD
:100C4000E5002091E600222319F18730910509F48F
:100C5000BFC09C012F7E29303105D1F08034910531
:100C600009F05CCF809166008B3F08F0EAC08C5F92
:100C70008093660080916500843008F4E5C084505C
:100C800080936500BCC03093DC002093DB0055CF1F
:100C90008931910509F4A5C060F58930910509F401
:100CA00080C0C8F48730910509F492C0089709F014
:100CB00035CF8091DF008F258093DF00882309F4F2
:100CC000C6C061E07FEF85E0A6DABC0180916500D7
:100CD0009091660042C08C30910509F4CFC04897CE
:100CE00009F01CCFA0906500B0906600B50180E8C7
:100CF000CBC08534910519F1A0F48C31910509F030
:100D0000ADCF6091650090E080E002DC609166000C
:100D100081E090E0FDDB1EBC1BBC88EC90E0EFDACC
:100D20008BC087349105F9F08E35910509F0F6CE28
:100D3000A0906500B0906600B5018FEFA5C09091BE
:100D400067009F25909367002091650030916600B1
:100D5000992329F0B90180E090E0E7DADFCE60E086
:100D600070E0C901FACF8091E00090E00196B801EF
:100D7000F0D08093E000880F991FFC01E858FF4FE6
:100D8000608171818091640046DAEC01BC01809140
:100D9000650090916600C9DAD0936600C093650043
:100DA000BDCE809164008B3F20F48C5F8093640003
:100DB00002C0E092640060916500709166008091CD
:100DC000640029DA909366008093650095D9A6CED9
:100DD00080916400843010F08450E8CF1092640059
:100DE000EACF809165008B3FF8F48C5F80936500BB
:100DF000809166008430D8F08450809366008091A2
:100E00006500811102C0F092650080916600811139
:100E100002C0F0926600909165008091660089178B
:100E200048F49093640008C0E0926500E1CF10920E
:100E30006600E5CF80936400809165009091660024
:100E4000C5CFE092660016CF10926500D8CF72DB56
:100E50009093660080936500909166008091650094
:100E6000891708F4892F8093640061E07FEF85E0A3
:100E7000D2D960916500709166006FCFA090650037
:100E8000B0906600B50189E1C6D9EC01BC01C5018D
:100E900082CFE6ECF0E01382128288EE93E0A0E0CD
:100EA000B0E084839583A683B7838CE690E091833A
:100EB000808382EA90E0908B878782E0848781E05C
:100EC00085878EEF8687118A0895FB01DC0102C0B9
:100ED00005900D9241505040D8F70895E199FECF0A
:100EE0009FBB8EBBE09A99278DB30895262FE19979
:100EF000FECF1CBA9FBB8EBB2DBB0FB6F894E29AF7
:100F0000E19A0FBE019608950024552704C0080EEB
:100F1000591F880F991F009729F076956795B8F3A8
:100F20007105B9F7802D952F0895AA1BBB1B51E1C0
:100F300007C0AA1FBB1FA617B70710F0A61BB70B49
:100F4000881F991F5A95A9F780959095BC01CD01EE
:100F5000089597FB072E16F4009406D077FD08D06D
:100F6000E4DF07FC05D03EF4909581959F4F0895EE
:100F7000709561957F4F0895EE0FFF1F0590F491D6
:080F8000E02D0994F894FFCF65
:100F8800FFFFFFFF80808001000000008800E30071
:100F9800D600A400C1008700FF01FF80FFFF80FF8B
:020FA80001FF47
:00000001FF
